{
  "_format": "hh-sol-artifact-1",
  "contractName": "OTCMarketplace",
  "sourceName": "contracts/OTCMarketplace.sol",
  "abi": [
    {
      "inputs": [
        {
          "internalType": "address",
          "name": "_feeCollector",
          "type": "address"
        },
        {
          "internalType": "uint256",
          "name": "_feeBasisPoints",
          "type": "uint256"
        }
      ],
      "stateMutability": "nonpayable",
      "type": "constructor"
    },
    {
      "anonymous": false,
      "inputs": [
        {
          "indexed": true,
          "internalType": "address",
          "name": "user",
          "type": "address"
        },
        {
          "indexed": true,
          "internalType": "address",
          "name": "asset",
          "type": "address"
        },
        {
          "indexed": false,
          "internalType": "uint256",
          "name": "timestamp",
          "type": "uint256"
        }
      ],
      "name": "Deposit",
      "type": "event"
    },
    {
      "anonymous": false,
      "inputs": [
        {
          "indexed": true,
          "internalType": "uint256",
          "name": "orderId",
          "type": "uint256"
        },
        {
          "indexed": true,
          "internalType": "address",
          "name": "owner",
          "type": "address"
        },
        {
          "indexed": false,
          "internalType": "uint256",
          "name": "timestamp",
          "type": "uint256"
        }
      ],
      "name": "OrderCancelled",
      "type": "event"
    },
    {
      "anonymous": false,
      "inputs": [
        {
          "indexed": true,
          "internalType": "uint256",
          "name": "orderId",
          "type": "uint256"
        },
        {
          "indexed": true,
          "internalType": "address",
          "name": "owner",
          "type": "address"
        },
        {
          "indexed": true,
          "internalType": "address",
          "name": "asset",
          "type": "address"
        },
        {
          "indexed": false,
          "internalType": "bool",
          "name": "isBuy",
          "type": "bool"
        },
        {
          "indexed": false,
          "internalType": "uint256",
          "name": "timestamp",
          "type": "uint256"
        }
      ],
      "name": "OrderCreated",
      "type": "event"
    },
    {
      "anonymous": false,
      "inputs": [
        {
          "indexed": true,
          "internalType": "uint256",
          "name": "matchId",
          "type": "uint256"
        },
        {
          "indexed": true,
          "internalType": "uint256",
          "name": "buyOrderId",
          "type": "uint256"
        },
        {
          "indexed": true,
          "internalType": "uint256",
          "name": "sellOrderId",
          "type": "uint256"
        },
        {
          "indexed": false,
          "internalType": "uint256",
          "name": "timestamp",
          "type": "uint256"
        }
      ],
      "name": "OrderMatched",
      "type": "event"
    },
    {
      "anonymous": false,
      "inputs": [
        {
          "indexed": true,
          "internalType": "uint256",
          "name": "matchId",
          "type": "uint256"
        },
        {
          "indexed": false,
          "internalType": "uint256",
          "name": "timestamp",
          "type": "uint256"
        }
      ],
      "name": "SettlementExecuted",
      "type": "event"
    },
    {
      "anonymous": false,
      "inputs": [
        {
          "indexed": true,
          "internalType": "address",
          "name": "user",
          "type": "address"
        },
        {
          "indexed": true,
          "internalType": "address",
          "name": "asset",
          "type": "address"
        },
        {
          "indexed": false,
          "internalType": "uint256",
          "name": "timestamp",
          "type": "uint256"
        }
      ],
      "name": "Withdrawal",
      "type": "event"
    },
    {
      "inputs": [
        {
          "internalType": "uint256",
          "name": "orderId",
          "type": "uint256"
        }
      ],
      "name": "cancelOrder",
      "outputs": [],
      "stateMutability": "nonpayable",
      "type": "function"
    },
    {
      "inputs": [
        {
          "internalType": "address",
          "name": "assetAddress",
          "type": "address"
        },
        {
          "internalType": "externalEuint64",
          "name": "amount",
          "type": "bytes32"
        },
        {
          "internalType": "externalEuint64",
          "name": "price",
          "type": "bytes32"
        },
        {
          "internalType": "externalEuint64",
          "name": "minFillAmount",
          "type": "bytes32"
        },
        {
          "internalType": "bytes",
          "name": "inputProof",
          "type": "bytes"
        },
        {
          "internalType": "uint256",
          "name": "expirationTime",
          "type": "uint256"
        }
      ],
      "name": "createBuyOrder",
      "outputs": [
        {
          "internalType": "uint256",
          "name": "",
          "type": "uint256"
        }
      ],
      "stateMutability": "nonpayable",
      "type": "function"
    },
    {
      "inputs": [
        {
          "internalType": "address",
          "name": "assetAddress",
          "type": "address"
        },
        {
          "internalType": "externalEuint64",
          "name": "amount",
          "type": "bytes32"
        },
        {
          "internalType": "externalEuint64",
          "name": "price",
          "type": "bytes32"
        },
        {
          "internalType": "externalEuint64",
          "name": "minFillAmount",
          "type": "bytes32"
        },
        {
          "internalType": "bytes",
          "name": "inputProof",
          "type": "bytes"
        },
        {
          "internalType": "uint256",
          "name": "expirationTime",
          "type": "uint256"
        }
      ],
      "name": "createSellOrder",
      "outputs": [
        {
          "internalType": "uint256",
          "name": "",
          "type": "uint256"
        }
      ],
      "stateMutability": "nonpayable",
      "type": "function"
    },
    {
      "inputs": [
        {
          "internalType": "address",
          "name": "asset",
          "type": "address"
        },
        {
          "internalType": "externalEuint64",
          "name": "amount",
          "type": "bytes32"
        },
        {
          "internalType": "bytes",
          "name": "inputProof",
          "type": "bytes"
        }
      ],
      "name": "deposit",
      "outputs": [],
      "stateMutability": "nonpayable",
      "type": "function"
    },
    {
      "inputs": [
        {
          "internalType": "uint256",
          "name": "matchId",
          "type": "uint256"
        },
        {
          "internalType": "externalEuint64",
          "name": "feeAmount",
          "type": "bytes32"
        },
        {
          "internalType": "bytes",
          "name": "inputProof",
          "type": "bytes"
        }
      ],
      "name": "executeSettlement",
      "outputs": [],
      "stateMutability": "nonpayable",
      "type": "function"
    },
    {
      "inputs": [],
      "name": "feeBasisPoints",
      "outputs": [
        {
          "internalType": "uint256",
          "name": "",
          "type": "uint256"
        }
      ],
      "stateMutability": "view",
      "type": "function"
    },
    {
      "inputs": [],
      "name": "feeCollector",
      "outputs": [
        {
          "internalType": "address",
          "name": "",
          "type": "address"
        }
      ],
      "stateMutability": "view",
      "type": "function"
    },
    {
      "inputs": [
        {
          "internalType": "address",
          "name": "user",
          "type": "address"
        },
        {
          "internalType": "address",
          "name": "asset",
          "type": "address"
        }
      ],
      "name": "getBalance",
      "outputs": [
        {
          "internalType": "euint64",
          "name": "",
          "type": "bytes32"
        }
      ],
      "stateMutability": "view",
      "type": "function"
    },
    {
      "inputs": [
        {
          "internalType": "uint256",
          "name": "matchId",
          "type": "uint256"
        }
      ],
      "name": "getMatch",
      "outputs": [
        {
          "internalType": "uint256",
          "name": "",
          "type": "uint256"
        },
        {
          "internalType": "uint256",
          "name": "",
          "type": "uint256"
        },
        {
          "internalType": "uint256",
          "name": "",
          "type": "uint256"
        },
        {
          "internalType": "euint64",
          "name": "",
          "type": "bytes32"
        },
        {
          "internalType": "euint64",
          "name": "",
          "type": "bytes32"
        },
        {
          "internalType": "uint256",
          "name": "",
          "type": "uint256"
        },
        {
          "internalType": "address",
          "name": "",
          "type": "address"
        },
        {
          "internalType": "address",
          "name": "",
          "type": "address"
        }
      ],
      "stateMutability": "view",
      "type": "function"
    },
    {
      "inputs": [
        {
          "internalType": "uint256",
          "name": "orderId",
          "type": "uint256"
        }
      ],
      "name": "getOrder",
      "outputs": [
        {
          "internalType": "uint256",
          "name": "",
          "type": "uint256"
        },
        {
          "internalType": "address",
          "name": "",
          "type": "address"
        },
        {
          "internalType": "address",
          "name": "",
          "type": "address"
        },
        {
          "internalType": "euint64",
          "name": "",
          "type": "bytes32"
        },
        {
          "internalType": "euint64",
          "name": "",
          "type": "bytes32"
        },
        {
          "internalType": "euint64",
          "name": "",
          "type": "bytes32"
        },
        {
          "internalType": "bool",
          "name": "",
          "type": "bool"
        },
        {
          "internalType": "uint256",
          "name": "",
          "type": "uint256"
        },
        {
          "internalType": "uint256",
          "name": "",
          "type": "uint256"
        }
      ],
      "stateMutability": "view",
      "type": "function"
    },
    {
      "inputs": [
        {
          "internalType": "address",
          "name": "user",
          "type": "address"
        }
      ],
      "name": "getUserMatches",
      "outputs": [
        {
          "internalType": "uint256[]",
          "name": "",
          "type": "uint256[]"
        }
      ],
      "stateMutability": "view",
      "type": "function"
    },
    {
      "inputs": [
        {
          "internalType": "address",
          "name": "user",
          "type": "address"
        }
      ],
      "name": "getUserOrders",
      "outputs": [
        {
          "internalType": "uint256[]",
          "name": "",
          "type": "uint256[]"
        }
      ],
      "stateMutability": "view",
      "type": "function"
    },
    {
      "inputs": [],
      "name": "matchCounter",
      "outputs": [
        {
          "internalType": "uint256",
          "name": "",
          "type": "uint256"
        }
      ],
      "stateMutability": "view",
      "type": "function"
    },
    {
      "inputs": [
        {
          "internalType": "uint256",
          "name": "buyOrderId",
          "type": "uint256"
        },
        {
          "internalType": "uint256",
          "name": "sellOrderId",
          "type": "uint256"
        },
        {
          "internalType": "externalEuint64",
          "name": "fillAmount",
          "type": "bytes32"
        },
        {
          "internalType": "bytes",
          "name": "inputProof",
          "type": "bytes"
        }
      ],
      "name": "matchOrders",
      "outputs": [
        {
          "internalType": "uint256",
          "name": "",
          "type": "uint256"
        }
      ],
      "stateMutability": "nonpayable",
      "type": "function"
    },
    {
      "inputs": [],
      "name": "orderCounter",
      "outputs": [
        {
          "internalType": "uint256",
          "name": "",
          "type": "uint256"
        }
      ],
      "stateMutability": "view",
      "type": "function"
    },
    {
      "inputs": [],
      "name": "protocolId",
      "outputs": [
        {
          "internalType": "uint256",
          "name": "",
          "type": "uint256"
        }
      ],
      "stateMutability": "pure",
      "type": "function"
    },
    {
      "inputs": [
        {
          "internalType": "address",
          "name": "_feeCollector",
          "type": "address"
        }
      ],
      "name": "setFeeCollector",
      "outputs": [],
      "stateMutability": "nonpayable",
      "type": "function"
    },
    {
      "inputs": [
        {
          "internalType": "address",
          "name": "asset",
          "type": "address"
        },
        {
          "internalType": "externalEuint64",
          "name": "amount",
          "type": "bytes32"
        },
        {
          "internalType": "bytes",
          "name": "inputProof",
          "type": "bytes"
        }
      ],
      "name": "withdraw",
      "outputs": [],
      "stateMutability": "nonpayable",
      "type": "function"
    }
  ],
  "bytecode": "0x60806040523461028757604051601f6121ee38819003918201601f19168301916001600160401b0383118484101761028b5780849260409485528339810103126102875780516001600160a01b03811691908290036102875760200151905f606061006861029f565b8281528260208201528260408201520152731364cbbf2cdf5032c47d8226a6f6fbd2afcdacac606061009861029f565b7350157cffd6bbfa2dece204a89ec419c23ef5755d815273cd3ab3bd6bcc0c0bf3e27912a92043e817b1cf69602082015273a02cda4ca3a71d7c46997716f4283aa851c28812604082015201527350157cffd6bbfa2dece204a89ec419c23ef5755d60018060a01b03195f5160206121ce5f395f51905f525416175f5160206121ce5f395f51905f525573cd3ab3bd6bcc0c0bf3e27912a92043e817b1cf6960018060a01b03195f51602061218e5f395f51905f525416175f51602061218e5f395f51905f525573a02cda4ca3a71d7c46997716f4283aa851c2881260018060a01b03195f5160206121ae5f395f51905f525416175f5160206121ae5f395f51905f5255731364cbbf2cdf5032c47d8226a6f6fbd2afcdacac60018060a01b03195f51602061216e5f395f51905f525416175f51602061216e5f395f51905f52558015610242576103e8821161020e57600280546001600160a01b031916919091179055600355604051611eaf90816102bf8239f35b60405162461bcd60e51b815260206004820152600c60248201526b08c8a8abea89e9ebe90928e960a31b6044820152606490fd5b60405162461bcd60e51b815260206004820152601560248201527f494e56414c49445f4645455f434f4c4c4543544f5200000000000000000000006044820152606490fd5b5f80fd5b634e487b7160e01b5f52604160045260245ffd5b60405190608082016001600160401b0381118382101761028b5760405256fe6080806040526004361015610012575f80fd5b5f3560e01c90816301fd19511461150a5750806313d98d131461143d57806325d501ee14610ec75780633d092b3d14610e03578063514fcac714610d3657806363c69f0814610cb957806369221471146109fd5780637cccc42c14610949578063a42dce80146108ba578063a8f51a87146105c1578063b789bf52146105a5578063b8606eef14610588578063c415b95c14610562578063ccbd6490146104d5578063d09ef24114610426578063d4fac45d146103bc578063da1f12ab146103a05763ddbd8e1d146100e2575f80fd5b3461039c576100f0366115e8565b9590929190610100428811611806565b6001600160a01b031694610115861515611852565b61012036858461167a565b6101299161189e565b9361013536858461167a565b61013e9161189e565b92369061014a9261167a565b6101539161189e565b915f54946101608661170c565b5f5561016a611d93565b936101756001611de1565b604051956101828761163b565b88875260208701953387526040880195898752606089019081526080890191825260a0890192835260c0890193845260e0890194855261010089019586526101208901965f88526101408a0198428a528c5f52600460205260405f209a518b55516001600160a01b031660018b01906001600160a01b031681546001600160a01b031916179055516001600160a01b031660028a01906001600160a01b031681546001600160a01b031916179055516003890155516004880155516005870155516006860155516007850155516008840155600983019051151560ff198254169060ff161790555190600a0155815f5260046020523360405f20600301549061028a91611d16565b815f5260046020523360405f2060040154906102a591611d16565b815f5260046020523360405f2060050154906102c091611d16565b815f5260046020523360405f2060060154906102db91611d16565b815f52600460205260405f2060030154306102f591611d16565b815f5260046020523060405f20600401549061031091611d16565b815f5260046020523060405f20600501549061032b91611d16565b815f5260046020523060405f20600601549061034691611d16565b335f5260076020528160405f209061035d9161172e565b6040515f815242602082015282339160407f8140fd8841c2882e9eab51320f12c0e1d3ec894a0d7a772af53f07eefcb66d8a91a4604051908152602090f35b5f80fd5b3461039c575f36600319011261039c5760206040516127118152f35b3461039c57604036600319011261039c576103d5611524565b602435906001600160a01b038216820361039c576001600160a01b03166103fd8133146117ba565b5f5260066020526001600160a01b0360405f2091165f52602052602060405f2054604051908152f35b3461039c57602036600319011261039c576004356104465f5482106116c0565b5f52600460205261012060405f206001600160a01b0360018201541661046d8133146117ba565b8154916001600160a01b036002820154166003820154600483015460058401549160ff60098601541693600a600887015496015496604051988952602089015260408801526060870152608086015260a0850152151560c084015260e0830152610100820152f35b3461039c57602036600319011261039c576001600160a01b036104f6611524565b166105028133146117ba565b5f52600860205260405f206040519081602082549182815201915f5260205f20905f5b81811061054c576105488561053c81870382611658565b604051918291826115af565b0390f35b8254845260209093019260019283019201610525565b3461039c575f36600319011261039c5760206001600160a01b0360025416604051908152f35b3461039c575f36600319011261039c576020600354604051908152f35b3461039c575f36600319011261039c5760205f54604051908152f35b3461039c57606036600319011261039c5760043560443567ffffffffffffffff811161039c576105f590369060040161153a565b610602600154841061176e565b825f52600560205260405f209160018301545f52600460205261064661063e60405f209260028601545f52600460205260405f2094369161167a565b60243561189e565b9260038101938454600483015481156108aa575b8015610898575b60209060646001600160a01b035f516020611e835f395f51905f525416935f6040519586948593630afe14ad60e31b8552600485015260248401528160448401525af190811561088d575f91610846575b50926001600160a01b0361081a9681969461079c856107586106d86107ef98879b611a7b565b61070c6007860196888854165f526006602052600260405f209a019989808c5416165f5260205260405f20549054906119c7565b878754165f52600660205260405f2088808b5416165f5260205260405f20556008850199878b54165f52600660205287600260405f2092019d8e5416165f5260205260405f20546119c7565b858954165f52600660205260405f2086808d5416165f5260205260405f205584600254165f52600660205260405f2085808c5416165f5260205260405f20546119c7565b83600254165f52600660205260405f2084808b5416165f5260205260405f205560056107c86001611de1565b910155541690815f526006602052848060405f20925416165f5260205260405f2054611d16565b541690815f5260066020526001600160a01b038060405f20925416165f5260205260405f2054611d16565b7ff4904bbf435daa7a733ab084d9e46281e8af51ff1faf67152dcd1faa6ebaefee6020604051428152a2005b919594929390506020823d602011610885575b8161086660209383611658565b8101031261039c57905193949193909291906001600160a01b036106b2565b3d9150610859565b6040513d5f823e3d90fd5b5060206108a3611d93565b9050610661565b90506108b4611d93565b9061065a565b3461039c57602036600319011261039c576108d3611524565b6001600160a01b03600254916108ec82841633146117ba565b16908115610904576001600160a01b03191617600255005b60405162461bcd60e51b815260206004820152600f60248201527f494e56414c49445f4144445245535300000000000000000000000000000000006044820152606490fd5b3461039c5761096b61099661097161096036611568565b95919295369161167a565b9061189e565b335f52600660205260405f206001600160a01b0384165f5260205260405f2054611a7b565b335f8181526006602090815260408083206001600160a01b038716845290915290208290556109c491611d16565b6001600160a01b036040519142835216907f2717ead6b9200dd235aad468c9809ea400fe33ac69b5bfaa6d3e90fc922b639860203392a3005b3461039c57610a0b366115e8565b9590929190610a1b428811611806565b6001600160a01b031694610a30861515611852565b610a3b36858461167a565b610a449161189e565b93610a5036858461167a565b610a599161189e565b923690610a659261167a565b610a6e9161189e565b915f5494610a7b8661170c565b5f55610a85611d93565b93610a906001611de1565b60405195610a9d8761163b565b88875260208701953387526040880195898752606089019081526080890191825260a0890192835260c0890193845260e089019485526101008901958652610120890196600188526101408a0198428a528c5f52600460205260405f209a518b55516001600160a01b031660018b01906001600160a01b031681546001600160a01b031916179055516001600160a01b031660028a01906001600160a01b031681546001600160a01b031916179055516003890155516004880155516005870155516006860155516007850155516008840155600983019051151560ff198254169060ff161790555190600a0155815f5260046020523360405f206003015490610ba691611d16565b815f5260046020523360405f206004015490610bc191611d16565b815f5260046020523360405f206005015490610bdc91611d16565b815f5260046020523360405f206006015490610bf791611d16565b815f52600460205260405f206003015430610c1191611d16565b815f5260046020523060405f206004015490610c2c91611d16565b815f5260046020523060405f206005015490610c4791611d16565b815f5260046020523060405f206006015490610c6291611d16565b335f5260076020528160405f2090610c799161172e565b6040516001815242602082015282339160407f8140fd8841c2882e9eab51320f12c0e1d3ec894a0d7a772af53f07eefcb66d8a91a4604051908152602090f35b3461039c57602036600319011261039c576001600160a01b03610cda611524565b16610ce68133146117ba565b5f52600760205260405f206040519081602082549182815201915f5260205f20905f5b818110610d20576105488561053c81870382611658565b8254845260209093019260019283019201610d09565b3461039c57602036600319011261039c57600435805f5260046020526001600160a01b03600160405f200154163303610dbe57610d755f5482106116c0565b805f52600460205260405f206006610d8c5f611de1565b910155604051904282527fc4058ebc534b64ecb27b2d4eaa1904f98997ec18ebe6ada4117593dde89478cc60203393a3005b60405162461bcd60e51b815260206004820152600960248201527f4e4f545f4f574e455200000000000000000000000000000000000000000000006044820152606490fd5b3461039c57602036600319011261039c57600435610e24600154821061176e565b5f52600560205261010060405f206001600160a01b03600782015416908133148015610eac575b610e54906117ba565b805491600182015491600281015460038201546004830154916001600160a01b03600860068601549501541695604051978852602088015260408701526060860152608085015260a084015260c083015260e0820152f35b50610e546001600160a01b0360088301541633149050610e4b565b3461039c57608036600319011261039c5760243560043560643567ffffffffffffffff811161039c57610f22610f04610f2a92369060040161153a565b610f1b5f54610f148188106116c0565b87106116c0565b369161167a565b60443561189e565b91815f52600460205260405f2091815f52600460205260405f209360ff600985015416156113f85760ff6009860154166113b3576001600160a01b036002850154166001600160a01b036002870154160361136e5760088401544210156113295742600886015411156112e4576003840180549160058601928354610fae91611a7b565b91600388019182549360058a01948554610fc791611a7b565b90610fd29083611b00565b90610fdd9083611b00565b9060078a0154610fed9084611b85565b9060078c0154610ffd9085611b85565b9261100791611c0a565b9161101191611c0a565b61101a91611c0a565b90611023611d93565b9061102d92611e2f565b938481549061103b916119c7565b81558484549061104a916119c7565b845554905461105891611c91565b9154905461106591611c91565b9061106f5f611de1565b90600687019182549061108192611e2f565b905561108c5f611de1565b90600687019182549061109e92611e2f565b9055600154936110ad8561170c565b6001556004810154956110bf5f611de1565b9160010180546001600160a01b0316916001019283546001600160a01b0316986040519161012083019183831067ffffffffffffffff8411176112d05760209b6001600160a01b03809997866008958f958f9b8f9c869d879b99889a6040528087526020870191825260408701928352606087019384526080870194855260a0870195865261010060c088019742895260e08101998a5201998a525f5260206005905260405f209c518d555160018d01555160028c01555160038b01555160048a01555160058901555160068801555116826007870191166001600160a01b03198254161790555116920191166001600160a01b0319825416179055865f52600588526111d7600360405f2001548383541690611d16565b865f52600588526111f3600360405f2001548385541690611d16565b865f526005885261120f600460405f2001548383541690611d16565b865f526005885261122b600460405f2001548385541690611d16565b865f5260058852611244600360405f2001543090611d16565b865f526005885261125c30600460405f200154611d16565b865f526005885261127430600560405f200154611d16565b54165f52600886526112898560405f2061172e565b54165f526008845261129e8360405f2061172e565b827f82877c5945532f956e6718f78f5606b7b5d8efef5e22121a3d9bf4e708873edd85604051428152a4604051908152f35b634e487b7160e01b5f52604160045260245ffd5b60405162461bcd60e51b815260206004820152601260248201527f53454c4c5f4f524445525f4558504952454400000000000000000000000000006044820152606490fd5b60405162461bcd60e51b815260206004820152601160248201527f4255595f4f524445525f455850495245440000000000000000000000000000006044820152606490fd5b60405162461bcd60e51b815260206004820152600e60248201527f41535345545f4d49534d415443480000000000000000000000000000000000006044820152606490fd5b60405162461bcd60e51b815260206004820152600e60248201527f4e4f545f53454c4c5f4f524445520000000000000000000000000000000000006044820152606490fd5b60405162461bcd60e51b815260206004820152600d60248201527f4e4f545f4255595f4f52444552000000000000000000000000000000000000006044820152606490fd5b3461039c5761096b61147961145461096036611568565b335f52600660205260405f206001600160a01b0384165f5260205260405f20546119c7565b335f8181526006602090815260408083206001600160a01b038716845290915290208290556114a791611d16565b335f52600660205260405f206001600160a01b0382165f526020526114d160405f20543090611d16565b6001600160a01b036040519142835216907f5548c837ab068cf56a2c2479df0882a4922fd203edb7517321831d95078c5f6260203392a3005b3461039c575f36600319011261039c576020906001548152f35b600435906001600160a01b038216820361039c57565b9181601f8401121561039c5782359167ffffffffffffffff831161039c576020838186019501011161039c57565b606060031982011261039c576004356001600160a01b038116810361039c5791602435916044359067ffffffffffffffff821161039c576115ab9160040161153a565b9091565b60206040818301928281528451809452019201905f5b8181106115d25750505090565b82518452602093840193909201916001016115c5565b60c060031982011261039c576004356001600160a01b038116810361039c57916024359160443591606435916084359067ffffffffffffffff821161039c576116339160040161153a565b909160a43590565b610160810190811067ffffffffffffffff8211176112d057604052565b90601f8019910116810190811067ffffffffffffffff8211176112d057604052565b92919267ffffffffffffffff82116112d057604051916116a4601f8201601f191660200184611658565b82948184528183011161039c578281602093845f960137010152565b156116c757565b60405162461bcd60e51b815260206004820152600f60248201527f4f524445525f4e4f545f455849535400000000000000000000000000000000006044820152606490fd5b5f19811461171a5760010190565b634e487b7160e01b5f52601160045260245ffd5b805490680100000000000000008210156112d0576001820180825582101561175a575f5260205f200155565b634e487b7160e01b5f52603260045260245ffd5b1561177557565b60405162461bcd60e51b815260206004820152600f60248201527f4d415443485f4e4f545f455849535400000000000000000000000000000000006044820152606490fd5b156117c157565b60405162461bcd60e51b815260206004820152600e60248201527f4e4f545f415554484f52495a45440000000000000000000000000000000000006044820152606490fd5b1561180d57565b60405162461bcd60e51b815260206004820152601260248201527f494e56414c49445f45585049524154494f4e00000000000000000000000000006044820152606490fd5b1561185957565b60405162461bcd60e51b815260206004820152600d60248201527f494e56414c49445f4153534554000000000000000000000000000000000000006044820152606490fd5b60209182916001600160a01b035f516020611e835f395f51905f525416905f60a460405180978196829563196d0b9b60e01b84526004840152336024840152608060448401528051918291826084860152018484015e818101830184905260056064830152601f01601f191681010301925af190811561088d575f91611995575b506001600160a01b037f9e7b61f58c47dc699ac88507c4f5bb9f121c03808c5676a8078fe583e46497005416803b1561039c57604051630f8e573b60e21b815260048101839052336024820152905f908290604490829084905af1801561088d57611988575090565b5f61199291611658565b90565b90506020813d6020116119bf575b816119b060209383611658565b8101031261039c57515f61191f565b3d91506119a3565b908115611a6b575b8015611a59575b60209060646001600160a01b035f516020611e835f395f51905f525416935f604051958694859363022f65e760e31b8552600485015260248401528160448401525af190811561088d575f91611a2a575090565b90506020813d602011611a51575b81611a4560209383611658565b8101031261039c575190565b3d9150611a38565b506020611a64611d93565b90506119d6565b9050611a75611d93565b906119cf565b908115611af0575b8015611ade575b60209060646001600160a01b035f516020611e835f395f51905f525416935f60405195869485936303056db360e31b8552600485015260248401528160448401525af190811561088d575f91611a2a575090565b506020611ae9611d93565b9050611a8a565b9050611afa611d93565b90611a83565b908115611b75575b8015611b63575b60209060646001600160a01b035f516020611e835f395f51905f525416935f6040519586948593631d44e90160e21b8552600485015260248401528160448401525af190811561088d575f91611a2a575090565b506020611b6e611d93565b9050611b0f565b9050611b7f611d93565b90611b08565b908115611bfa575b8015611be8575b60209060646001600160a01b035f516020611e835f395f51905f525416935f6040519586948593631391547f60e01b8552600485015260248401528160448401525af190811561088d575f91611a2a575090565b506020611bf3611d93565b9050611b94565b9050611c04611d93565b90611b8d565b908115611c80575b8015611c6d575b60209060646001600160a01b035f516020611e835f395f51905f525416935f604051958694859363d99882d560e01b8552600485015260248401528160448401525af190811561088d575f91611a2a575090565b506020611c795f611de1565b9050611c19565b9050611c8b5f611de1565b90611c12565b908115611d06575b8015611cf4575b60209060646001600160a01b035f516020611e835f395f51905f525416935f604051958694859363f77f3f1d60e01b8552600485015260248401528160448401525af190811561088d575f91611a2a575090565b506020611cff611d93565b9050611ca0565b9050611d10611d93565b90611c99565b6001600160a01b037f9e7b61f58c47dc699ac88507c4f5bb9f121c03808c5676a8078fe583e4649700541691823b1561039c57604051635ca4b5b160e11b815260048101929092526001600160a01b03166024820152905f908290604490829084905af1801561088d57611d875750565b5f611d9191611658565b565b5f516020611e835f395f51905f5254604051639cd07acb60e01b81525f6004820152906001600160a01b0316816044815f602094600560248401525af190811561088d575f91611a2a575090565b5f516020611e835f395f51905f5254604051639cd07acb60e01b815260048101929092526001600160a01b0316816044815f6020948160248401525af190811561088d575f91611a2a575090565b9060646020925f6001600160a01b035f516020611e835f395f51905f5254166040519687958694637702dcff60e01b86526004860152602485015260448401525af190811561088d575f91611a2a57509056fe9e7b61f58c47dc699ac88507c4f5bb9f121c03808c5676a8078fe583e4649701a164736f6c634300081b000a9e7b61f58c47dc699ac88507c4f5bb9f121c03808c5676a8078fe583e46497039e7b61f58c47dc699ac88507c4f5bb9f121c03808c5676a8078fe583e46497019e7b61f58c47dc699ac88507c4f5bb9f121c03808c5676a8078fe583e46497029e7b61f58c47dc699ac88507c4f5bb9f121c03808c5676a8078fe583e4649700",
  "linkReferences": {},
  "deployedLinkReferences": {}
}