{
  "_format": "hh-sol-artifact-1",
  "contractName": "EncryptedOrderbook",
  "sourceName": "contracts/EncryptedOrderbook.sol",
  "abi": [
    {
      "inputs": [
        {
          "internalType": "address",
          "name": "_marketplace",
          "type": "address"
        }
      ],
      "stateMutability": "nonpayable",
      "type": "constructor"
    },
    {
      "anonymous": false,
      "inputs": [
        {
          "indexed": true,
          "internalType": "uint256",
          "name": "orderId",
          "type": "uint256"
        },
        {
          "indexed": true,
          "internalType": "address",
          "name": "asset",
          "type": "address"
        },
        {
          "indexed": false,
          "internalType": "bool",
          "name": "isBuy",
          "type": "bool"
        },
        {
          "indexed": false,
          "internalType": "uint256",
          "name": "timestamp",
          "type": "uint256"
        }
      ],
      "name": "OrderInserted",
      "type": "event"
    },
    {
      "anonymous": false,
      "inputs": [
        {
          "indexed": true,
          "internalType": "uint256",
          "name": "orderId",
          "type": "uint256"
        },
        {
          "indexed": true,
          "internalType": "address",
          "name": "asset",
          "type": "address"
        },
        {
          "indexed": false,
          "internalType": "bool",
          "name": "isBuy",
          "type": "bool"
        },
        {
          "indexed": false,
          "internalType": "uint256",
          "name": "timestamp",
          "type": "uint256"
        }
      ],
      "name": "OrderRemoved",
      "type": "event"
    },
    {
      "inputs": [
        {
          "internalType": "address",
          "name": "",
          "type": "address"
        }
      ],
      "name": "assetOrderCounts",
      "outputs": [
        {
          "internalType": "uint256",
          "name": "",
          "type": "uint256"
        }
      ],
      "stateMutability": "view",
      "type": "function"
    },
    {
      "inputs": [
        {
          "internalType": "address",
          "name": "",
          "type": "address"
        }
      ],
      "name": "buyHeadIds",
      "outputs": [
        {
          "internalType": "uint256",
          "name": "",
          "type": "uint256"
        }
      ],
      "stateMutability": "view",
      "type": "function"
    },
    {
      "inputs": [
        {
          "internalType": "address",
          "name": "asset",
          "type": "address"
        }
      ],
      "name": "getAssetOrderCount",
      "outputs": [
        {
          "internalType": "uint256",
          "name": "",
          "type": "uint256"
        }
      ],
      "stateMutability": "view",
      "type": "function"
    },
    {
      "inputs": [
        {
          "internalType": "address",
          "name": "asset",
          "type": "address"
        }
      ],
      "name": "getBestBuyOrder",
      "outputs": [
        {
          "internalType": "uint256",
          "name": "",
          "type": "uint256"
        }
      ],
      "stateMutability": "view",
      "type": "function"
    },
    {
      "inputs": [
        {
          "internalType": "address",
          "name": "asset",
          "type": "address"
        }
      ],
      "name": "getBestSellOrder",
      "outputs": [
        {
          "internalType": "uint256",
          "name": "",
          "type": "uint256"
        }
      ],
      "stateMutability": "view",
      "type": "function"
    },
    {
      "inputs": [
        {
          "internalType": "address",
          "name": "asset",
          "type": "address"
        },
        {
          "internalType": "uint256",
          "name": "maxCount",
          "type": "uint256"
        }
      ],
      "name": "getBuyOrders",
      "outputs": [
        {
          "internalType": "uint256[]",
          "name": "",
          "type": "uint256[]"
        }
      ],
      "stateMutability": "view",
      "type": "function"
    },
    {
      "inputs": [
        {
          "internalType": "uint256",
          "name": "orderId",
          "type": "uint256"
        }
      ],
      "name": "getOrderDetails",
      "outputs": [
        {
          "internalType": "euint64",
          "name": "price",
          "type": "bytes32"
        },
        {
          "internalType": "euint64",
          "name": "amount",
          "type": "bytes32"
        },
        {
          "internalType": "uint256",
          "name": "timestamp",
          "type": "uint256"
        },
        {
          "internalType": "uint256",
          "name": "nextOrderId",
          "type": "uint256"
        }
      ],
      "stateMutability": "view",
      "type": "function"
    },
    {
      "inputs": [
        {
          "internalType": "address",
          "name": "asset",
          "type": "address"
        },
        {
          "internalType": "uint256",
          "name": "maxCount",
          "type": "uint256"
        }
      ],
      "name": "getSellOrders",
      "outputs": [
        {
          "internalType": "uint256[]",
          "name": "",
          "type": "uint256[]"
        }
      ],
      "stateMutability": "view",
      "type": "function"
    },
    {
      "inputs": [
        {
          "internalType": "uint256",
          "name": "orderId",
          "type": "uint256"
        },
        {
          "internalType": "address",
          "name": "asset",
          "type": "address"
        },
        {
          "internalType": "euint64",
          "name": "price",
          "type": "bytes32"
        },
        {
          "internalType": "euint64",
          "name": "amount",
          "type": "bytes32"
        }
      ],
      "name": "insertBuyOrder",
      "outputs": [],
      "stateMutability": "nonpayable",
      "type": "function"
    },
    {
      "inputs": [
        {
          "internalType": "uint256",
          "name": "orderId",
          "type": "uint256"
        },
        {
          "internalType": "address",
          "name": "asset",
          "type": "address"
        },
        {
          "internalType": "euint64",
          "name": "price",
          "type": "bytes32"
        },
        {
          "internalType": "euint64",
          "name": "amount",
          "type": "bytes32"
        }
      ],
      "name": "insertSellOrder",
      "outputs": [],
      "stateMutability": "nonpayable",
      "type": "function"
    },
    {
      "inputs": [],
      "name": "marketplace",
      "outputs": [
        {
          "internalType": "address",
          "name": "",
          "type": "address"
        }
      ],
      "stateMutability": "view",
      "type": "function"
    },
    {
      "inputs": [
        {
          "internalType": "uint256",
          "name": "",
          "type": "uint256"
        }
      ],
      "name": "orderNodes",
      "outputs": [
        {
          "internalType": "uint256",
          "name": "orderId",
          "type": "uint256"
        },
        {
          "internalType": "euint64",
          "name": "price",
          "type": "bytes32"
        },
        {
          "internalType": "euint64",
          "name": "amount",
          "type": "bytes32"
        },
        {
          "internalType": "uint256",
          "name": "timestamp",
          "type": "uint256"
        },
        {
          "internalType": "uint256",
          "name": "nextOrderId",
          "type": "uint256"
        },
        {
          "internalType": "bool",
          "name": "exists",
          "type": "bool"
        }
      ],
      "stateMutability": "view",
      "type": "function"
    },
    {
      "inputs": [],
      "name": "protocolId",
      "outputs": [
        {
          "internalType": "uint256",
          "name": "",
          "type": "uint256"
        }
      ],
      "stateMutability": "pure",
      "type": "function"
    },
    {
      "inputs": [
        {
          "internalType": "uint256",
          "name": "orderId",
          "type": "uint256"
        },
        {
          "internalType": "address",
          "name": "asset",
          "type": "address"
        }
      ],
      "name": "removeBuyOrder",
      "outputs": [],
      "stateMutability": "nonpayable",
      "type": "function"
    },
    {
      "inputs": [
        {
          "internalType": "uint256",
          "name": "orderId",
          "type": "uint256"
        },
        {
          "internalType": "address",
          "name": "asset",
          "type": "address"
        }
      ],
      "name": "removeSellOrder",
      "outputs": [],
      "stateMutability": "nonpayable",
      "type": "function"
    },
    {
      "inputs": [
        {
          "internalType": "address",
          "name": "",
          "type": "address"
        }
      ],
      "name": "sellHeadIds",
      "outputs": [
        {
          "internalType": "uint256",
          "name": "",
          "type": "uint256"
        }
      ],
      "stateMutability": "view",
      "type": "function"
    }
  ],
  "bytecode": "0x60806040523461024157604051601f610eec38819003918201601f19168301916001600160401b038311848410176102455780849260209460405283398101031261024157516001600160a01b03811690819003610241575f6060610062610259565b8281528260208201528260408201520152731364cbbf2cdf5032c47d8226a6f6fbd2afcdacac6060610092610259565b7350157cffd6bbfa2dece204a89ec419c23ef5755d815273cd3ab3bd6bcc0c0bf3e27912a92043e817b1cf69602082015273a02cda4ca3a71d7c46997716f4283aa851c28812604082015201527350157cffd6bbfa2dece204a89ec419c23ef5755d60018060a01b03195f516020610ecc5f395f51905f525416175f516020610ecc5f395f51905f525573cd3ab3bd6bcc0c0bf3e27912a92043e817b1cf6960018060a01b03195f516020610e8c5f395f51905f525416175f516020610e8c5f395f51905f525573a02cda4ca3a71d7c46997716f4283aa851c2881260018060a01b03195f516020610eac5f395f51905f525416175f516020610eac5f395f51905f5255731364cbbf2cdf5032c47d8226a6f6fbd2afcdacac60018060a01b03195f516020610e6c5f395f51905f525416175f516020610e6c5f395f51905f525580156101fc57600480546001600160a01b031916919091179055604051610bf390816102798239f35b60405162461bcd60e51b815260206004820152601360248201527f494e56414c49445f4d41524b4554504c414345000000000000000000000000006044820152606490fd5b5f80fd5b634e487b7160e01b5f52604160045260245ffd5b60405190608082016001600160401b038111838210176102455760405256fe6080806040526004361015610012575f80fd5b5f3560e01c908163065b19b8146108cd575080630bc59a891461021b5780631d37ea401461082b57806338a90ddd1461049f5780633b3728091461076b57806342020b68146106005780635ca51e891461053c5780637c286fb9146104d757806384d2a5091461049f578063abc8c7af14610479578063b994a31714610441578063bad61ccb146102d7578063da1f12ab146102bb578063ec7dd7bb14610253578063f5e2eda91461021b5763fc18c22e146100cc575f80fd5b346102175761018c6001600160a01b036101926100e83661092d565b91939295906100fc86600454163314610994565b865f525f60205261011760ff600560405f20015416156109e0565b60405161012381610a2c565b87815260056020820191838352604081018681526060820142815260808301915f835260a0840195600187528d5f525f60205260405f2094518555516001850155516002840155516003830155516004820155019051151560ff80198354169116179055610b6a565b50610b6a565b501690815f52600260205260405f205480155f146102035750815f5260026020528060405f20555b815f52600360205260405f206101d08154610a7e565b90557f96b0cbe38cb4552da8a6298f3c15353b91758ddb7bbaf27afb702a1b4d95b8b0604080515f8152426020820152a3005b5f525f60205280600460405f2001556101ba565b5f80fd5b34610217576020366003190112610217576001600160a01b0361023c610901565b165f526003602052602060405f2054604051908152f35b3461021757602036600319011261021757600435805f525f60205261028160ff600560405f20015416610b12565b5f525f602052608060405f206001810154906002810154906004600382015491015491604051938452602084015260408301526060820152f35b34610217575f3660031901126102175760206040516127118152f35b34610217576040366003190112610217576004356001600160a01b036102fb610917565b61030a82600454163314610994565b825f525f60205261032460ff600560405f20015416610b12565b16805f52600260205260405f20548281145f146103d4575090805f525f602052600460405f200154825f52600260205260405f20555b805f525f60205261038b60405f2060055f918281558260018201558260028201558260038201558260048201550155565b815f52600360205260405f206103a18154610b5e565b90557f9629ad06eb76af5c322329db73b52aaf6ba757207d886cc935d4d7ec15878920604080515f8152426020820152a3005b5b80151580610429575b156103f6575f525f602052600460405f2001546103d5565b91909180610405575b5061035a565b815f525f602052600460405f200154905f525f602052600460405f200155826103ff565b50805f525f60205282600460405f20015414156103de565b34610217576020366003190112610217576001600160a01b03610462610901565b165f526001602052602060405f2054604051908152f35b34610217575f3660031901126102175760206001600160a01b0360045416604051908152f35b34610217576020366003190112610217576001600160a01b036104c0610901565b165f526002602052602060405f2054604051908152f35b34610217576020366003190112610217576004355f525f60205260c060405f20805490600181015490600281015460038201549060ff6005600485015494015416936040519586526020860152604085015260608401526080830152151560a0820152f35b3461021757604036600319011261021757610555610901565b6024356001600160a01b0361056982610ab8565b92165f52600160205260405f20545f905b801515806105f7575b156105b157806105938386610aea565b525f525f6020526105ab600460405f20015491610a7e565b9061057a565b83826105bc81610ab8565b915f5b8281106105d857604051806105d4868261095b565b0390f35b806105e560019284610aea565b516105f08287610aea565b52016105bf565b50828210610583565b34610217576040366003190112610217576004356001600160a01b03610624610917565b61063382600454163314610994565b825f525f60205261064d60ff600560405f20015416610b12565b16805f52600160205260405f20548281145f146106fe575090805f525f602052600460405f200154825f52600160205260405f20555b805f525f6020526106b460405f2060055f918281558260018201558260028201558260038201558260048201550155565b815f52600360205260405f206106ca8154610b5e565b90557f9629ad06eb76af5c322329db73b52aaf6ba757207d886cc935d4d7ec158789206040805160018152426020820152a3005b5b80151580610753575b15610720575f525f602052600460405f2001546106ff565b9190918061072f575b50610683565b815f525f602052600460405f200154905f525f602052600460405f20015582610729565b50805f525f60205282600460405f2001541415610708565b3461021757604036600319011261021757610784610901565b6024356001600160a01b0361079882610ab8565b92165f52600260205260405f20545f905b80151580610822575b156107e057806107c28386610aea565b525f525f6020526107da600460405f20015491610a7e565b906107a9565b83826107eb81610ab8565b915f5b82811061080357604051806105d4868261095b565b8061081060019284610aea565b5161081b8287610aea565b52016107ee565b508282106107b2565b346102175761018c6001600160a01b036108476100e83661092d565b501690815f52600160205260405f205480155f146108b95750815f5260016020528060405f20555b815f52600360205260405f206108858154610a7e565b90557f96b0cbe38cb4552da8a6298f3c15353b91758ddb7bbaf27afb702a1b4d95b8b06040805160018152426020820152a3005b5f525f60205280600460405f20015561086f565b34610217576020366003190112610217576020906001600160a01b036108f1610901565b165f526001825260405f20548152f35b600435906001600160a01b038216820361021757565b602435906001600160a01b038216820361021757565b608090600319011261021757600435906024356001600160a01b038116810361021757906044359060643590565b60206040818301928281528451809452019201905f5b81811061097e5750505090565b8251845260209384019390920191600101610971565b1561099b57565b60405162461bcd60e51b815260206004820152600f60248201527f4e4f545f4d41524b4554504c41434500000000000000000000000000000000006044820152606490fd5b156109e757565b60405162461bcd60e51b815260206004820152600c60248201527f4f524445525f45584953545300000000000000000000000000000000000000006044820152606490fd5b60c0810190811067ffffffffffffffff821117610a4857604052565b634e487b7160e01b5f52604160045260245ffd5b90601f8019910116810190811067ffffffffffffffff821117610a4857604052565b5f198114610a8c5760010190565b634e487b7160e01b5f52601160045260245ffd5b67ffffffffffffffff8111610a485760051b60200190565b90610ac282610aa0565b610acf6040519182610a5c565b8281528092610ae0601f1991610aa0565b0190602036910137565b8051821015610afe5760209160051b010190565b634e487b7160e01b5f52603260045260245ffd5b15610b1957565b60405162461bcd60e51b815260206004820152600f60248201527f4f524445525f4e4f545f455849535400000000000000000000000000000000006044820152606490fd5b8015610a8c575f190190565b6001600160a01b037f9e7b61f58c47dc699ac88507c4f5bb9f121c03808c5676a8078fe583e46497005416803b15610217575f8091604460405180948193635ca4b5b160e11b83528760048401523060248401525af18015610bdb57610bce575090565b5f610bd891610a5c565b90565b6040513d5f823e3d90fdfea164736f6c634300081b000a9e7b61f58c47dc699ac88507c4f5bb9f121c03808c5676a8078fe583e46497039e7b61f58c47dc699ac88507c4f5bb9f121c03808c5676a8078fe583e46497019e7b61f58c47dc699ac88507c4f5bb9f121c03808c5676a8078fe583e46497029e7b61f58c47dc699ac88507c4f5bb9f121c03808c5676a8078fe583e4649700",
  "linkReferences": {},
  "deployedLinkReferences": {}
}